:0A0C2F00000102020303040405059E
:1004E400E4F513F512F511F510C203C200C202C2FD
:1004F400011208B87E077F008E238F24752B0775A1
:100504002C1275210775221C752907752A54752D1F
:1005140007752E8CEE54C070030205E57514007542
:1005240015808E168F17C374C29FFF74079ECF2445
:1005340002CF3400FEE48F0F8E0EF50DF50CF50B93
:10054400F50AF509F508AF0FAE0EAD0DAC0CAB0B0B
:10055400AA0AA909A808C31207C45033E517250B32
:10056400F582E516350AF583E0FFE515250BF582DE
:10057400E514350AF583EFF0E50B2401F50BE435BA
:100584000AF50AE43509F509E43508F50880B78564
:10059400142385152474002480FF740734FFFEC3DC
:1005A400E52C9FF52CE52B9EF52BC3E5269FF52620
:1005B400E5259EF525C3E5289FF528E5279EF52723
:1005C400C3E5229FF522E5219EF521C3E52A9FF587
:1005D4002AE5299EF529C3E52E9FF52EE52D9EF5E6
:1005E4002DD2E843D82090E668E04409F090E65C18
:1005F400E0443DF0D2AF90E680E020E105D2041261
:1006040006CF90E680E054F7F0538EF8C20312024E
:10061400CB300105120080C2013003F2C203120B79
:100624003420001690E682E030E704E020E1EF9009
:0F063400E682E030E604E020E0E4120AB680CF70
:0B0C240090E509E030E402C322D32277
:1000800090E6B9E01207D5013B0001B801023C033C
:1000900000B206013508012F0901230A01290B02CC
:1000A000A7D102ACD202B1D302B6D402BBD50000B4
:1000B00002C01206FE40030202C390E6BBE024FE2B
:1000C000602714603824FD601114602724067050E6
:1000D000E52390E6B3F0E524803C120C24503EE585
:1000E0002B90E6B3F0E52C802DE52590E6B3F0E506
:1000F000268023E52790E6B3F0E528801990E6BA3C
:10010000E0FF120AE2AA06A9077B01EA494B600D4B
:10011000EE90E6B3F0EF90E6B4F00202C302029E66
:1001200002029E120C120202C3120C410202C312FE
:100130000C390202C3120C000202C3120C4F40031E
:100140000202C390E6B8E0247F601514601924020F
:100150007063A200E43325E0FFA202E4334F804144
:10016000E490E740F0803F90E6BCE0547EFF7E00E4
:10017000E0D394807C0040047D0180027D00EC4E41
:10018000FEED4F242FF582740C3EF583E493FF338C
:1001900095E0FEEF24A1FFEE34E68F82F583E05474
:1001A0000190E740F0E4A3F090E68AF090E68B74CB
:1001B00002F00202C302029E120C5140030202C36B
:1001C00090E6B8E024FE6016240260030202C390A9
:1001D000E6BAE0B40105C2000202C302029E90E644
:1001E000BAE0705690E6BCE0547EFF7E00E0D39407
:1001F000807C0040047D0180027D00EC4EFEED4FCE
:10020000242FF582740C3EF583E493FF3395E0FED2
:10021000EF24A1FFEE34E68F82F583E054FEF090E8
:10022000E6BCE05480131313541FFFE0540F2F90CB
:10023000E683F0E04420F00202C38062120C5340D7
:10024000030202C390E6B8E024FE60192402704E57
:1002500090E6BAE0B40104D200806890E6BAE064A7
:10026000026060803990E6BCE0547EFF7E00E0D3FF
:1002700094807C0040047D0180027D00EC4EFEED08
:100280004F242FF582740C3EF583E493FF3395E001
:10029000FEEF24A1FFEE34E68F82F583800390E623
:1002A000A0E04401F0801C1209D7801712093380A6
:1002B00012120B59800D120B7B8008120B9D8003CC
:0A02C000120C4990E6A0E04480F023
:0102CA002211
:030033000207FBC6
:0407FB0053D8EF32AE
:100B0D00602210053077311432B333B634D435E664
:100B1D0036E7373438F739F641F562C743636497E2
:060B2D0045E346E15A0019
:1008B80090E605E054FDF0D20075B2F075B5FFE49E
:1008C800F5B375B0F090E600E054E74410F090E618
:1008D80001E04440F0E4901027F0901004F090E616
:1008E8001074B0F090E611F000000090E61274A2C7
:1008F800F000000090E61474E2F0000000E490E6D6
:1009080015F090E613F0901002F0A3F000000090AC
:10091800E6917480F0000000F043AF017E027F0092
:0A092800901028E4F0A3DFFCDEFAD3
:0109320022A2
:1002CB0090E6A1E020E10D90E780E0901027F0E4AC
:1002DB0090E68DF0E580F430E00F9012287401F079
:1002EB00A37458F0E4901000F0E580F430E105E4DD
:1002FB00901228F0901228E0604BA3E004F0C39416
:10030B00C84042E4F053B0F0901000E025E0240622
:10031B00F582E43410F583E0FF540F25B0F5B0EF10
:10032B0054F0FFE580540F2FF5807F907E0112096A
:10033B0091901000E004F0E0D3940F4008E014F02B
:10034B00E4901228F0901027E0600B901004F0E47A
:10035B00901027F0803390E6A2E020E12C75B2F0EC
:10036B0075B3F0E580F45403C454F0FFE590F454F6
:10037B000F2F901004F0E0FF600F90E7C074D4F0E3
:10038B00A3EFF090E68F7402F0E5AA30E0030204CD
:10039B003090F001E0FE90F000E07C002400F51BB3
:1003AB00EC3EF51AC39402507674F0F59A7402F58C
:1003BB009B7428251BF5827410351AF59D7428251E
:1003CB001BF582E582F59E90E690E0FE90E691E0CB
:1003DB002400FFEC3ECF24FEF51DEF34FFF51CE5AA
:1003EB001B251DFFE51A351CFED3EF9400EE94027E
:1003FB00400BE4951BF51D7402951AF51CE4F518DA
:10040B00F519C3E519951DE518951C501290E67B5F
:10041B00E090E67CF00519E51970E7051880E3908C
:10042B00E6917480F0E5AA30E5030204E390100234
:10043B00E0F51AA3E0F51BE4901002F0A3F0C3E57E
:10044B001A940240030204D47428251BF5827410FD
:10045B00351AF59A7428251BF582E582F59B74F8FD
:10046B00F59D7400F59E90E698E0FE90E699E07C91
:10047B00002400F51DEC3EF51CE51B251DFFE51AC0
:10048B00351CFED3EF9400EE9402400BE4951BF564
:10049B001D7402951AF51CE4F518F519C3E51995A9
:1004AB001DE518951C501290E67BE090E67CF0055C
:1004BB0019E51970E7051880E3000000E51C90E6CC
:1004CB0098F0000000E51D800B000000E490E6981A
:0804DB00F000000090E699F02A
:0104E30022F6
:1009D700E490E68AF090E68B04F07F647E001209CB
:1009E7009190E740E030E008E054F0F452B080081E
:1009F70090E740E054F042B0E5B0C4540FF49010D3
:0F0A070001F0E0540FF090E6A0E04480F0D3221D
:10093300E490E68AF090E68B04F07F647E0012096F
:100943009190E740E0FFD3940F4003BF5A1D9010EE
:1009530000BF5A05745AF08012EFF025E02406F523
:1009630082E43410F583E0F5188003E4F51853B0FE
:10097300F0E518540F25B0F5B0E51854F0FFE58005
:0D098300540F2FF58090E6A0E04480F0D3E3
:010990002244
:100B5900901001E090E740F0E490E68AF090E68B8F
:100B690004F07F647E0012099190E6A0E04480F0D1
:020B7900D32285
:100B7B00901000E090E740F0E490E68AF090E68B6E
:100B8B0004F07F647E0012099190E6A0E04480F0AF
:020B9B00D32263
:100B9D00E490E68AF090E68BF090122804F0A374AE
:0F0BAD0058F0E4901000F090E6A0E04480F022B1
:0206FE00D32205
:080C390090E6BAE0F536D32283
:100C000090E740E536F0E490E68AF090E68B04F059
:020C1000D322ED
:080C410090E6BAE0F531D32280
:100C120090E740E531F0E490E68AF090E68B04F04C
:020C2200D322DB
:020C4F00D322AE
:020C5100D322AC
:020C5300D322AA
:060C490090E6B9E0D322A1
:100BBC00C0E0C083C082D2015391EF90E65D740116
:080BCC00F0D082D083D0E032AA
:100BD400C0E0C083C0825391EF90E65D7404F0D00E
:060BE40082D083D0E03254
:100BEA00C0E0C083C0825391EF90E65D7402F0D0FA
:060BFA0082D083D0E0323E
:100A5300C0E0C083C082852925852A268526828514
:100A63002583A37402F08521278522288528828582
:100A73002783A37407F05391EF90E65D7410F0D0D1
:060A830082D083D0E032B6
:100A8900C0E0C083C082C0D053B0F0740E25B0F569
:100A9900B0E580540F24E0F580D2035391EF90E63E
:0D0AA9005D7408F0D0D0D082D083D0E03250
:100A1600C0E0C083C08290E680E030E720852125D3
:100A2600852226852682852583A37402F0852927BB
:100A3600852A28852882852783A37407F05391EF9A
:0D0A460090E65D7420F0D082D083D0E032C5
:0107FF0032C7
:010C5500326C
:010C5600326B
:010C5700326A
:010C58003269
:010C59003268
:010C5A003267
:010C5B003266
:010C5C003265
:010C5D003264
:010C5E003263
:010C5F003262
:010C60003261
:010C61003260
:010C6200325F
:010C6300325E
:010C6400325D
:010C6500325C
:010C6600325B
:010C6700325A
:010C68003259
:010C69003258
:010C6A003257
:010C6B003256
:010C6C003255
:010C6D003254
:010C6E003253
:010C6F003252
:010C70003251
:010C71003250
:010C7200324F
:010C7300324E
:010C7400324D
:010C7500324C
:010C7600324B
:010C7700324A
:100700001201000200000040B404091100000102BF
:1007100000010A0600020000004001000902370043
:10072000010100A0320904000000FF0000000904DC
:10073000000104FF0000000705810340000A0705CF
:10074000010340000A0705020200020007058602B5
:100750000002000009023700010100A03209040074
:100760000000FF0000000904000104FF0000000772
:1007700005810340000A0705010340000A0705023E
:10078000024000000705860240000000040309043F
:100790001C034300680069006E00610020004800EF
:1007A00065006100720069006E0067001603430077
:1007B00059003000300031002000560031002E007A
:0407C0003000000005
:100AB60090E682E030E004E020E60B90E682E0304B
:100AC600E119E030E71590E680E04401F07F147EFE
:0C0AD6000012099190E680E054FEF0222E
:1006CF0030040990E680E0440AF0800790E680E06D
:1006DF004408F07FDC7E0512099190E65D74FFF00F
:0F06EF0090E65FF05391EF90E680E054F7F02231
:100991008E1E8F1F90E600E054187012E51F24018F
:1009A100FFE4351EC313F51EEF13F51F801590E606
:1009B10000E05418FFBF100BE51F25E0F51FE51EF1
:1009C10033F51EE51F151FAE1E7002151E4E600584
:0609D100120B4880EE222B
:020AE200A90762
:100AE400AE2DAF2E8F828E83A3E064037017AD0109
:100AF40019ED7001228F828E83E07C002FFDEC3E85
:080B0400FEAF0580DFE4FEFFF7
:010B0C0022C6
:100B340090E682E044C0F090E681F0438701000033
:040B4400000000228B
:100B48007400F58690FDA57C05A3E582458370F9C0
:010B5800227A
:03004300020800B0
:03005300020800A0
:10080000020BBC00020BEA00020BD400020A8900B2
:10081000020A5300020A16000207FF00020C5500EC
:10082000020C5600020C5700020C5800020C590032
:10083000020C5A00020C5B00020C5C00020C5D0012
:10084000020C5E00020C5500020C5F00020C6000FE
:10085000020C6100020C6200020C6300020C6400D6
:10086000020C6500020C5500020C5500020C5500EC
:10087000020C6600020C6700020C6800020C6900A2
:10088000020C6A00020C6B00020C6C00020C6D0082
:10089000020C6E00020C6F00020C7000020C710062
:1008A000020C7200020C7300020C7400020C750042
:0808B000020C7600020C770037
:03000000020643B2
:0C064300787FE4F6D8FD75813602068A47
:1007C400EB9FF5F0EA9E42F0E99D42F0E89C45F08B
:0107D4002202
:1007D500D083D082F8E4937012740193700DA3A3B3
:1007E50093F8740193F5828883E4737402936860C7
:0607F500EFA3A3A380DFC7
:10064F000204E4E493A3F8E493A34003F68001F2D9
:10065F0008DFF48029E493A3F85407240CC8C333AC
:10066F00C4540F4420C8834004F456800146F6DF7B
:10067F00E4800B0102040810204080900B0DE47EF3
:10068F00019360BCA3FF543F30E509541FFEE49370
:10069F00A360010ECF54C025E060A840B8E493A337
:1006AF00FAE493A3F8E493A3C8C582C8CAC583CA62
:1006BF00F0A3C8C582C8CAC583CADFE9DEE780BE1A
:010B330000C1
:00000001FF
